:020000040800F2
:10000000581000203D460008F90E0008FB0E0008BD
:10001000FF0E0008030F0008070F00080000000093
:100020000000000000000000000000000B0F0008AE
:100030000D0F0008000000000F0F0008E71900086E
:10004000574600085746000857460008574600081C
:10005000574600085746000857460008574600080C
:1000600057460008574600085746000857460008FC
:1000700057460008574600085746000857460008EC
:1000800057460008574600085746000857460008DC
:1000900057460008574600085746000857460008CC
:1000A00057460008574600085746000857460008BC
:1000B000C7220008072300085746000857460008D3
:1000C000574600085746000857460008574600089C
:1000D00057460008652200088B220008B12200085C
:1000E000574600085746000857460008574600087C
:1000F000574600085746000857460008574600086C
:10010000574600085746000857460008574600085B
:10011000574600085746000857460008574600084B
:10012000574600085746000857460008574600083B
:1001300000F002F800F042F80AA090E8000C8244B7
:100140008344AAF10107DA4501D100F037F8AFF294
:10015000090EBAE80F0013F0010F18BFFB1A43F0A5
:10016000010318476C5400008C540000103A24BF5F
:1001700078C878C1FAD8520724BF30C830C144BF0C
:1001800004680C607047000000230024002500264E
:10019000103A28BF78C1FBD8520728BF30C148BFEA
:1001A0000B607047642904F09F82782904F0D8829C
:1001B000002070471FB51FBD10B510BD04F09AFC9C
:1001C0001146FFF7F7FF00F011FE04F0B8FC03B48E
:1001D000FFF7F2FF03BC01F0C0FC000008B50121ED
:1001E000042003F0B5F82020ADF8000010208DF8B1
:1001F000030003208DF802006946F64802F0CCFDAA
:1002000008BD10B52021F34802F075FE6E2001F004
:1002100014FC2021EF4802F06CFE10BD30B5ADF2A9
:10022000044D00240025EC480078ADF80400641C5F
:1002300000BF11E005EBC50202EB4203E64A921C47
:1002400002EB430101AA02EB4400362204F050FB0A
:1002500004F11B0084B26D1CDF480078A842E9DC81
:1002600001A800EB4400DD4909880180601C84B2CC
:1002700001A800EB4400DA4909880180601C84B2BF
:10028000234601AA0021084602F0F4F80DF2044DBD
:1002900030BD10B50446E078A17840EA012000EBBB
:1002A000C00101EB00104FF6FF7101EA8000CB495D
:1002B00008806078217840EA0120C9490880C74851
:1002C000008801F0CCF8C5480288C5480188C5A05F
:1002D00004F0D6F910BD70B5BCB00646CAA00068DF
:1002E000219000250024012E04D0022E1CD0032EC4
:1002F00019D137E001208DF88500802000230322EA
:1003000021A9009001A800F07DFF682201A922A880
:1003100004F033FBBDF88A2023A9022001F041FD3F
:100320000020BA49087086E002208DF88500AA48AE
:1003300000788DF8860080200023032221A90090F8
:1003400001A800F05FFF682201A922A804F015FBB4
:10035000BDF88A2023A9022001F023FD0020AB492B
:10036000087068E006222046611CCCB21BA90A5422
:1003700003222046611CCCB21BA90A54974800886E
:10038000642190FBF1F0C0F307222046611CCCB23F
:100390001BA90A5491480088642190FBF1F0C2B275
:1003A0002046611CCCB21BA90A548D480088021259
:1003B0002046611CCCB21BA90A5489480278204609
:1003C000611CCCB21BA90A54002519E005EBC5003D
:1003D00000EB40018048801C30F8110000121BA97E
:1003E000085505EBC50000EB40017B48801C10F868
:1003F00011101BAA601C1154A01CC4B2681CC5B209
:1004000075480078A842E1DC8020002322461BA921
:10041000009001A800F0F6FE682201A922A804F0CD
:10042000ACFABDF88A2023A9022001F0BAFC002012
:100430007649087000BF00BF3CB070BD10B50446DF
:100440002078FA282FD16078C13805282AD2DFE831
:1004500000F0030A131C220002206D4908706DA0F1
:1004600004F00EF91EE0042069490870FFF7D6FE7B
:1004700072A004F005F915E0FFF7C3FE79487A4948
:1004800008607AA004F0FCF80CE0FFF7BAFE7DA04B
:1004900004F0F6F806E00320FFF71DFF80A004F04B
:1004A000EFF800BF0DE02078FB280AD1A078617832
:1004B00000EB01204A4908800846018881A004F029
:1004C000DFF810BD10B504462078012806D00228B8
:1004D0000FD004281CD0052822D115E04C48007804
:1004E000032805D101207F490870601CFFF7D1FE69
:1004F00016E047480078032805D101207A490870A2
:10050000601C01F031F90BE0601CFFF797FF07E07A
:100510006078A11C01F0E8F901207449087000BF5F
:1005200000BF10BD10B50446D4B1012C02D0022C7E
:100530001AD10FE06E48007830B1012034490870BC
:1005400000206B49087001E000F0E8FD69A004F0AC
:1005500097F809E000F0E8FD6CA004F091F803E0E2
:1005600070A004F08DF800BF00BF10BD10B50446A8
:1005700034B1012C08D0022C0FD0092C1FD115E06A
:100580006EA004F07DF823E072A004F079F8012059
:100590001E49087000F0C2FD1AE074A004F070F863
:1005A00001201A49087000F0BFFD11E077A004F0A7
:1005B00067F801201549087000F0B6FD08E0012039
:1005C0001249087077A004F05BF800F0ADFD00BFA1
:1005D00000BF10BD000801404E01002010000020A7
:1005E000300000204454552D44454255472D2D3EA2
:1005F00075706C6F6164203A2025642C20626175EF
:10060000643A2025640A000006000000350000203E
:10061000040000204454552D44454255472D2D3E9D
:10062000646F776E6C6F616420636D64207379739F
:1006300074656D20636F6E6669670A004454552DBA
:1006400044454255472D2D3E646F776E6C6F616453
:1006500020636D64206F706572617474696F6E0AD7
:10066000000000000400FA050CED00E04454552D94
:1006700044454255472D2D3E726573657420616C6B
:100680006C0A00004454552D44454255472D2D3EDB
:10069000726573657420776569636875616E0A00B9
:1006A0004454552D44454255472D2D3E646F776E79
:1006B0006C6F616420636D642073656E64206C6987
:1006C00073740A004454552D44454255472D2D3E20
:1006D00075706C6F61645F74696D652073657420FB
:1006E00025640A003300002034000020320000207E
:1006F000370000204454552D44454255472D2D3E8A
:100700006A696F6E204F4B0A000000004454552D5B
:1007100044454255472D2D3E6A696F6E20666169DA
:100720006C0A00004454552D44454255472D2D3E3A
:100730006A696F6E20696E670A0000004454552D87
:1007400044454255472D2D3E73656E64206F6B0AFC
:10075000000000004454552D44454255472D2D3E80
:1007600073656E64206F7665720A00004454552DDF
:1007700044454255472D2D3E73656E64206E6F20B3
:100780006E6574776F726B0A000000004454552D3B
:1007900044454255472D2D3E73656E642062757346
:1007A000790A00004454552D44454255472D2D3EAD
:1007B00073656E642064617461206572726F720A81
:1007C0000000000010B50446022C06D0032C0AD00D
:1007D000042C0ED0052C16D10FE0EAA003F050FF38
:1007E00000F09CFC13E0EFA003F04AFF00F09CFC3B
:1007F0000DE0F4A003F044FF09E0FAA003F040FF8D
:1008000000F08CFC03E0FEA003F03AFF00BF00BF45
:1008100010BD10B5ADF5007D022001F047F9C4B25E
:10082000C82C05DB022001F084F90DF5007D10BD18
:1008300022461AA9022001F04FF922461AA9684659
:1008400000F067FD6822694666A804F096F800216A
:10085000684600F02EFD682269464CA804F08DF829
:100860009DF8980103280AD10DF29D10FFF72AFE8A
:10087000BDF832214DA9022001F093FA2AE09DF83B
:10088000980102280AD19DF89C01FFF74BFEBDF8A4
:1008900032214DA9022001F084FA1BE09DF8980155
:1008A000012806D1BDF832214DA9022001F079FAC4
:1008B00010E09DF89801042804D19DF89C01FFF7F1
:1008C00055FE07E09DF89801052803D19DF89C018D
:1008D000FFF778FF022001F02CF900BFA5E710B563
:1008E00001F01CF8FFF78DFC01F09AF901F0EEF928
:1008F00001F0BFFA4FF4165000F0A0FDAFF2ED008A
:1009000001F0AAFC01F092FD00F028FC00F00CFCC4
:1009100040F27121042000F0EBFB10BD30B599B01E
:100920004FF6FF7018900025012318AA00210846F1
:1009300001F08DFDBDF860000A2852DABDF86000B4
:1009400000284EDDA01C84B200BF18E01B230AAAB9
:100950002146002001F07BFD26220EA9684604F006
:100960000CF80AA80FC800F08EFE04F1360084B21D
:10097000B4F5806F01DB00BFFEE7681CC5B2BDF8AF
:1009800060008542E2DB0123A54A2146002001F0F8
:100990005EFDA01C84B20123A24A2146002001F082
:1009A00056FD9F48008800F05AFD9D4802889D48EA
:1009B0000188AFF2D03003F063FE9BA003F060FE2D
:1009C0000220FFF788FC00F0B9FFA44A03C200F040
:1009D000B5FFA34A03C200F0A1FB0520A14908709E
:1009E00005E0A1A003F04CFE02209E49087019B05A
:1009F00030BD10B500F070FF00F072FF0020A64976
:100A00000870A64908708649088000F097FFA44A3C
:100A100003C200F093FFA34A03C20120A249087059
:100A2000FFF759FC10BD10B50022A04B9D4800F007
:100A3000BCFF08B100F07EFB00229D4B984800F0FF
:100A4000B4FF40B19448007894490978084310B93C
:100A50000120FFF740FC904800789049097808434E
:100A6000C0B19148007830B100F068FF914A03C2EC
:100A700000208D49087000228F4B8E4800F095FFB2
:100A800040B18948007828B90120874908700320BF
:100A9000FFF721FC10BD10B57F48007810B17F48EA
:100AA000007830B985A003F0EBFD02206D49087095
:100AB00012E08FA003F0E4FD0220FFF70CFC00F031
:100AC0003DFF664A03C200F039FF654A03C200F0E9
:100AD00025FB05206349087010BD70B5B4B0002433
:100AE0000022734B5D4800F060FF70B1684600F073
:100AF00065FB682269461AA803F03FFFBDF86A202B
:100B00001BA9022001F04DF900BF4648008804F0FF
:100B10007DFA05462A460B46514800F046FF00285C
:100B20002ED000F007FD00244EE103207949087023
:100B3000C4EBC401784810F8310076494870C4EB22
:100B4000C401754800EBC1004088001271498870EB
:100B5000C4EBC401704800EBC10080786D49C870D7
:100B6000C4EBC4016C4800EBC1000079694908710D
:100B700008460279C4EBC403674800EBC300CDE02C
:100B800027E100004454552D44454255472D2D3E44
:100B90007374617465206E6574776F726B206F6B10
:100BA0000A0000004454552D44454255472D2D3E22
:100BB0007374617465206E6574776F726B20666103
:100BC000696C0A004454552D44454255472D2D3E2D
:100BD00073746174652073656E64207768696C65F1
:100BE000200A00004454552D44454255472D2D3EC2
:100BF00073746174652073656E64206F6B200A00E6
:100C00004454552D44454255472D2D3E737461740F
:100C1000652073656E64206F74686572200A000039
:100C200010000020300000204454552D444542550A
:100C3000472D2D3E666C6173682072656164204F9C
:100C40004B202C2073797374656D20737461746507
:100C5000206F7065726174696F6E0A000800002071
:100C600018000020040000204454552D44454255EE
:100C7000472D2D3E7265616420666C617368206645
:100C800061696C206A756D702073797374656D2D60
:100C9000636F6E6669670A0033000020340000202D
:100CA0002800002020000020360000200000F03F37
:100CB00000004E403800002000C072404454552DC2
:100CC00044454255472D2D3E546865207379737411
:100CD000656D20636F6E66696775726174696F6EAA
:100CE00020697320696E636F6D706C6574650A00AE
:100CF0004454552D44454255472D2D3E7379737408
:100D0000656D207374617465206F706572617469BC
:100D10006F6E0A00B40000206E030020411D484899
:100D200003F0E6FD4648401F0079401D4549087024
:100D300000F004FE444A03C215E000F0EBF9002283
:100D4000424B414800F031FE68B141480078401CF8
:100D50003F490870084601783EA003F091FC45A089
:100D600003F08EFC03E04B4800780028E5D000BF7C
:100D7000802000230090334802783149491F1AA887
:100D800000F040FA68221AA9434803F0B1FD424836
:100D90004288011D022001F004F800203D4908703E
:100DA0003E48007800EB40002949097888420ADC77
:100DB0003BA003F065FC012036490870FFF721FADB
:100DC000002023490870641C34480078A0423FF793
:100DD000ACAE3848007838B137A003F051FC00F0D1
:100DE0008EFD00203349087034B070BDFFF777FDE9
:100DF000FFF7F4F9FFF705FA37A003F041FC1EE016
:100E00003C480078062817D2DFE800F00304070DFD
:100E1000101311E0FFF782FD0EE0FFF7EAFD03205B
:100E20003449087008E0FFF7FEFD05E0FFF733FEE8
:100E300002E0FFF752FE00BF00BF00F06BF9DFE7F2
:100E4000B90000204000002048000020000024409D
:100E5000500000204454552D44454255472D2D3E09
:100E600074696D656F75745F6E756D6265723A2534
:100E7000640A00004454552D44454255472D2D3EEB
:100E8000776169742073656E642074696D656F7530
:100E900074200A0035000020E60000206C030020CA
:100EA000776569636875616E207265736574200A81
:100EB00000000000320000204454552D44454255A6
:100EC000472D2D3E73656E642073656E736F7220BF
:100ED000636D64200A0000004454552D444542557A
:100EE000472D2D3E73797374656D20696E6974208A
:100EF0006F6B0A0004000020704700BFFEE700BFD0
:100F0000FEE700BFFEE700BFFEE77047704770478F
:100F10000CB50020019000906C48006840F48030CF
:100F20006A49086000BF6948006800F4003000901A
:100F30000198401C0190009818B90198B0F5A06F75
:100F4000F1D16248006800F4003010B10120009037
:100F500001E0002000900098012843D15C4800681F
:100F600040F010005A4908600846006820F003006D
:100F700008600846006840F0020008605348406876
:100F8000524948600846406848600846406840F456
:100F9000806048600846406820F47C10486008463D
:100FA000406840F4E81048600846006840F08070EF
:100FB000086000BF4548006800F000700028F9D0C4
:100FC0004248406820F003004049486008464068B5
:100FD00040F00200486000BF3C48406800F00C0050
:100FE0000828F9D10CBD10B5FFF792FF10BD10B560
:100FF0003648006840F001003449086008464068FF
:101000003449084031494860084600683249084080
:101010002E4908600846006820F4802008600846D1
:10102000406820F4FE0048604FF41F008860FFF71E
:10103000DAFF4FF000602949086010BD10B50021AB
:1010400000200022214B5B6803F00C0121B1042930
:1010500006D0082928D107E0214B224C236027E045
:101060001F4B204C236023E0184B5B6803F4701087
:10107000164B5B6803F48032022303EB904022B9E5
:10108000194B4343174C23600DE0104B5B6803F48E
:10109000003323B1144B4343124C236003E0104B45
:1010A0004343104C236003E00D4B0E4C236000BF04
:1010B00000BF064B5B68C3F303130C4CE15C094BA8
:1010C0001B68CB40074C236010BD0000001002409D
:1010D000002002400000FFF8FFFFF6FE08ED00E0F0
:1010E00000127A005400002000093D005800002042
:1010F00070B505460C4645F2555001F09BFF284659
:1011000001F09BFF204601F09BFF01F09CFF01F0E6
:101110009FFF70BD10B501F096FF10BD10B52021E6
:10112000184801F0E8FE10BD10B52021154801F067
:10113000E0FE10BD10B51448007838B920211148E0
:1011400001F0D9FE01201049087006E000200E4988
:10115000087020210B4801F0CCFE10BD08B501211C
:10116000082002F0F5F82020ADF8000010208DF8DE
:10117000030003208DF802006946024801F00CFECE
:1011800008BD0000000C01406800002070B5024658
:101190000C46FF25FF2309E012F8010B80EA03014A
:1011A0009448405C80EA05039348455C201EA4F106
:1011B0000106F4B2F0D143EA052070BD10B59AB033
:1011C0000446FE208DF8040001218DF805108DF8ED
:1011D000061073218DF8071060218DF80810752115
:1011E0008DF80910EF218DF80A100720ADF80200E4
:1011F00000208DF8000068226946204603F078FB45
:101200001AB010BD2DE9F04F9BB082460F4615462F
:101210009846DDF890B00026B1460024FE22214613
:10122000641C02A8425401222146641C4254E81C5A
:10123000C2B22146641C02A8425400222146641C0A
:1012400042542146641C00F801802146641C00F8C9
:1012500001B000BF07E0BA5D2046611C8CB202A954
:101260000A54701CC6B2AE42F5DB681DC1B20DF166
:101270000900FFF78BFF81462046611C8CB202A952
:1012800001F800904FEA19222046611C8CB202A995
:101290000A54EF222046611C8CB202A90A54ADF810
:1012A0000640682201A9504603F022FB1BB0BDE8AE
:1012B000F08FF0B59BB007460D4600260024FE22B5
:1012C0002146641C02A8425402222146641C425456
:1012D00001222146641C42542146641C45540321CA
:1012E000401CFFF753FF06462146641C02A84654E3
:1012F000320A2146641C4254EF222146641C4254A7
:10130000ADF80640682201A9384603F0F1FA1BB097
:10131000F0BD2DE9F0419AB007460C46154600266F
:101320002078FE2858D1681E205CEF2854D16278BE
:10133000A178022A02D0032A4CD117E0072D09D147
:1013400004208DF80000E0788DF804000120ADF84D
:1013500002000AE0082D08D105208DF80000207950
:101360008DF804000120ADF8020033E0E078022897
:1013700009D102238DF8003023798DF80430012340
:10138000ADF8023025E0012806D101238DF80030A8
:101390000023ADF802301CE0A8B9042608E014F8D8
:1013A0000680331F0DF1040C0CF80380731CDEB2B1
:1013B000CB1CB342F3DC4B1E9BB2ADF802300323CF
:1013C0008DF8003005E023798DF804300123ADF865
:1013D000023000BF00BF04E00020ADF802008DF82D
:1013E000000068226946384603F082FA1AB0BDE868
:1013F000F0810000945300089454000810B5F84898
:101400000078B0B1012000F051FBF64908700846A1
:101410000078C82803DB012000F08BFB10BDF148E9
:101420000278F149012000F057FB0020EC490870D8
:1014300002E0012000F07DFB00BFEFE710B504469D
:101440000020EA490870EA490870204600F094FB41
:1014500000F06CFDAFF25B0000F001FF10BD10B5B5
:101460000446204600F088FB10BD0FB410B50024E0
:10147000DF4800780A285ADADD490978C1EBC10251
:10148000DB49891C01EBC200382202A903F030FAC3
:10149000D7480078411CD7A003F0F2F8D448007870
:1014A000C0EBC002D248801C00EBC2004188D6A02D
:1014B00003F0E6F8CE480078C0EBC002CC48801CB0
:1014C00010F83210D5A003F0DBF8C9480078C0EB63
:1014D000C002C748801C00EBC2000179D5A003F010
:1014E000CFF8D9A003F0CCF800BF0DE0C0480078D9
:1014F000C0EBC002BE48801C00EBC200401D015D75
:10150000D3A003F0BDF8641CB9480078C0EBC0015B
:10151000B748801C00EBC1000079A042E6DCCEA0F9
:1015200003F0AEF8B2480078401CB149087010BC16
:101530005DF814FBF0B59BB0002118911991AB48F0
:10154000007808B91BB0F0BD0020A949087000243C
:101550008DE0012000F0EDFA0120A149087004EBB4
:10156000C40000EB4003A148801C00EB4300C2789C
:1015700004EBC40000EB40039C48801C00EB4300DC
:10158000011D012000F00DFC00F0D8F9064603F023
:10159000F7FC054603F023FDCDE9180163E0FFF7F2
:1015A000B9FD04EBC40101EB41029049891C01EB38
:1015B0004201887803F02AFD05462A460B4618A802
:1015C00000F0F3F920B3A5480078A549087004EBB2
:1015D000C40000EB40018548801C30F81100A04990
:1015E000488002200871FF20487192219C48817137
:1015F000282200F11001684603F07AF93822984950
:101600000AA803F075F90AA80FC8FFF72EFF2BE010
:101610007348007838BB914800789149087004EB12
:10162000C40000EB40017148801C30F811008C4967
:1016300048806C48007808716A4802786A4988488E
:10164000401D03F055F9282285491031684603F002
:101650004FF9382282490AA803F04AF90AA80FC8AC
:10166000FFF703FF00E09AE700BF601CC4B25F48C9
:101670000078A0423FF76DAF78480078401C77496A
:10168000087000BF5EE70FB410B50024574800781B
:101690000A2866DA5549097801EBC10101EB4102DC
:1016A0005249891C01EB4200362202A903F020F9BD
:1016B0004E480078411C6BA002F0E2FF4B480078D6
:1016C00000EBC00000EB40024848801C30F81210CC
:1016D0006BA002F0D5FF4548007800EBC00000EB9E
:1016E00040024248801C00EB4200817868A002F072
:1016F000C7FF3E48007800EBC00000EB40023B48CB
:10170000801C00EB4200C17867A002F0B9FF4EA038
:1017100002F0B6FF00BF0FE03448007800EBC000D5
:1017200000EB40023148801C00EB4200001D015DCF
:1017300047A002F0A5FF641C2C48007800EBC00015
:1017400000EB40012948801C00EB4100C078A0421A
:10175000E2DC41A002F094FF24480078401C2349B9
:10176000087010BC5DF814FB30B599B00446002534
:101770006178207801EB002080B2ADF82C00A078D1
:101780008DF82E00E0788DF82F00E278211D0CA84E
:1017900003F0AEF800BF14E005EBC50000EB40011C
:1017A0001248801C30F81100BDF82C10884206D178
:1017B000BDF82C1041A002F063FF19B030BD681CC9
:1017C000C5B20A480078A842E6DC26220FA968467E
:1017D00003F0D3F80BA80FC8FFF755FF00BFECE7E5
:1017E000690000206A000020D10500204E01002081
:1017F0006C030020736176652D73656E642D7063D4
:101800006B203A2025640A00736176652D73656E3E
:10181000642D6B65793A2025640900007361766553
:101820002D73656E642D70636B5F69643A20256467
:1018300009000000736176652D73656E642D6C651B
:101840006E3A2025640A000050524F3A20000000F2
:1018500020253032580000000A0000006B000020F4
:101860009A06002073656E736F722D6275666665E9
:10187000722D6E756D626572203A2025640A000033
:1018800073656E736F722D6B65793A20256409005C
:1018900073656E736F722D7573652D74696D653A1E
:1018A000202564090000000073656E736F722D704F
:1018B000726F2D6C656E3A2025640A0073656E7335
:1018C0006F722070636B2025642072657065746987
:1018D00074696F6E0A00000000200D49087070479F
:1018E00000200C490870704770B504460D460A4840
:1018F000047022462946401C02F0FAFF70BD10B564
:1019000005480278411C012000F04BFA10BD000090
:101910006C0300204E0100209E0500204FF0E020C7
:10192000006920F004004FF0E0210861544848614C
:101930000846006940F00300086170472DE9F04750
:101940004FF0E021886903F061FB064600224D4B11
:1019500003F0BEF904460D464B4A4C4B4C4903C9B3
:1019600003F002F9804622462B4603F029FC494A3F
:1019700003C2494847490CC803C903F021FC044687
:10198000464A474B03F0E6FB07D23F4A3F4B4149EB
:1019900003C903F015FC3F4A03C23E4903C93E4A4E
:1019A00003C23C4903C9BDE8F0872DE9FC478246E4
:1019B00016461F46FFF7C2FF04460D46DAE90083CC
:1019C00042462046294603F0FBFB32463B46CDE922
:1019D000000103F0BFFB04D8CAE900450120BDE8BF
:1019E000FC870020FBE710B5274A284B284903C98C
:1019F00003F0BAF8264A03C210BD2DE9F14FFFF7F4
:101A00009DFF82468B4600BF009803F0FFFA064612
:101A10000022244B03F05CF904460D46FFF78EFFCD
:101A2000064652465B4603F0CBFB804622462B46D9
:101A300003F000FBE8D3BDE8F88F2DE9F14FFFF785
:101A40007DFF04460D4600BF009803F0DFFA06460E
:101A50000022154B03F03CF980468946FFF76EFFE4
:101A6000064622462B4603F0ABFB04460D46824653
:101A700042464B4603F0DEFAE6D3BDE8F88F7047E6
:101A80004031F700882A6141CDCCCCCCCCCCFC3F96
:101A9000800000207000002078000020621058397B
:101AA000B4C8FC3F80842E4100408F4010B50446EE
:101AB000012C03D1FE4800F0AAFC10BD022C03D17A
:101AC000FC4800F0A4FCF8E7032C03D1FA4800F02E
:101AD0009EFCF2E70020F0E72DE9F04105460E46B6
:101AE0001746012D09D1002404E03119F04800F017
:101AF00073FC641CBC42F8DB19E0022D09D1002400
:101B000004E03119EB4800F067FC641CBC42F8DBD0
:101B10000DE0032D09D1002404E03119E64800F05E
:101B20005BFC641CBC42F8DB01E0BDE8F08100BF57
:101B3000FBE710B50446012C03D1DD4800F028FC7A
:101B40000AE0022C03D1DB4800F022FC04E0032C65
:101B500002D1D94800F01CFC10BD014600BF7047FF
:101B600000BFD64A128802F04002002AF9D0C2B261
:101B7000D24B1B1D1A80704710B586B00446012158
:101B800044F2040001F0E4FBCD4802F053FB4FF4B3
:101B90000070ADF8140003208DF8160018208DF8A1
:101BA000170005A9C74801F0F7F84FF48060ADF8B9
:101BB000140004208DF8170005A9C24801F0ECF8C4
:101BC00025208DF8000000208DF801008DF802001E
:101BD00001208DF80300684600F037FD01940020D5
:101BE000ADF80800ADF80A00ADF80C00ADF8100033
:101BF0000C20ADF80E0001A9B14802F05EFB0122F5
:101C000040F22551AE4802F0F0FB0121AC4802F051
:101C1000E0FBC822AC49A64800F0B4FB06B010BDFA
:101C200000B587B00121042001F092FB0121480496
:101C300001F09BFBA54802F0FDFA0420ADF8180066
:101C400003208DF81A0018208DF81B0006A99D4866
:101C500001F0A2F80820ADF8180004208DF81B0050
:101C600006A9984801F098F826208DF80400002075
:101C70008DF805008DF8060001208DF8070001A8F9
:101C800000F0E3FC4FF4165002900020ADF80C0079
:101C9000ADF80E00ADF81000ADF814000C20ADF852
:101CA000120002A9894802F008FB012240F22551E6
:101CB000864802F09AFB0121844802F08AFBC82280
:101CC00083497C4800F05EFB07B000BD00B587B0DB
:101CD0000121082001F03CFB0121880401F045FBB3
:101CE000764802F0A7FA4FF48060ADF818000320A0
:101CF0008DF81A0018208DF81B0006A9754801F010
:101D00004BF84FF40060ADF8180004208DF81B006C
:101D100006A9704801F040F827208DF80400032040
:101D20008DF805008DF8060001208DF8070001A848
:101D300000F08BFC4FF4E13002900020ADF80C0075
:101D4000ADF80E00ADF81000ADF814000C20ADF8A1
:101D5000120002A9594802F0B0FA012240F22551BE
:101D6000564802F042FB0121544802F032FBC822DF
:101D70005949514800F006FB07B000BD70B5044654
:101D80000D462946204602F091FB00BF80212046E7
:101D900002F0FAFB0028F9D08021204602F001FC75
:101DA00070BD2DE9F04107460D4616460024012F6F
:101DB00004D0022F1BD0032F4BD131E0012140482A
:101DC00002F007FB00240FE0295D3D4802F06EFBA6
:101DD00000BF80213A4802F0D7FB0028F9D08021CB
:101DE000374802F0DEFB641CB442EDDB31E0012138
:101DF000364802F0EEFA00240FE0295D334802F085
:101E000055FB00BF8021314802F0BEFB0028F9D00D
:101E100080212E4802F0C5FB641CB442EDDB18E0C3
:101E20000121264802F0D5FA00240FE0295D23485D
:101E300002F03CFB00BF8021204802F0A5FB0028F7
:101E4000F9D080211D4802F0ACFB641CB442EDDBEC
:101E500000BF00BFBDE8F08170B505460C4604E048
:101E600021782846FFF78AFF641C20780028F7D1E4
:101E700070BD00B589B00121084601F076FA4FF631
:101E8000FE70ADF80C0040F2E730ADF8080000201D
:101E9000ADF80E00ADF80A0002A94FF0804001F045
:101EA0008FFB0020ADF814000120ADF8160015E0FE
:101EB000D4060020E0070020EC0800200048004085
:101EC0000038014000080140E006002000440040C6
:101ED000EC070020000C0140F80800206420ADF859
:101EE0001A000020ADF81C0005A94FF0804001F059
:101EF000A4FB05A94FF0804001F0E1FB0221480757
:101F000002F094F90421080702F090F91C208DF8E2
:101F1000040003208DF8050001208DF806008DF8DF
:101F2000070001A800F091FB09B000BD00B589B021
:101F30000121022001F019FA4FF6FE70ADF80C00F5
:101F400040F2E730ADF808000020ADF80E00ADF823
:101F50000A0002A9FC4801F033FB0020ADF8140090
:101F60000120ADF816006420ADF81A000020ADF88D
:101F70001C0005A9F44801F060FB0421F24802F0BE
:101F800055F90221F04802F051F91D208DF80400A6
:101F900003208DF8050001208DF806008DF807005C
:101FA00001A800F052FB09B000BD10B50446012C99
:101FB00004D0022C0FD0032C27D119E00020E349D4
:101FC0000870E34908700121E24802F002FA01209A
:101FD000FFF7AFFD19E00020DF490870DF49087006
:101FE0000121DF4802F0F5F90220FFF7A2FD0CE025
:101FF0000020DC490870DC4908700121DB4802F050
:10200000E8F90320FFF795FD00BF00BF10BD70B5D4
:102010000446012C1CD1D64800F0BAF90020CB4967
:1020200008700120CA4908700121C74801F024FE48
:1020300001220221C44801F03AFEC34802F0D3F85D
:1020400000F5FA6085B22946BF4802F0ADF83CE0E1
:10205000022C1CD1C74800F09BF90020BE49087033
:102060000120BE4908700121800701F005FE012210
:102070000221480701F01BFE600702F0B4F800F5EA
:10208000FA6085B22946600702F08EF81DE0032C45
:102090001BD1B94800F07CF90020B249087001203A
:1020A000B14908700121A84801F0E6FD0122022192
:1020B000A54801F0FCFDA44802F095F800F5FA608F
:1020C00085B22946A04802F06FF870BD70B504468D
:1020D000012C10D100209D49087001209C490870F6
:1020E000994802F080F800F5FA6085B229469648D2
:1020F00002F05AF824E0022C10D100209649087012
:10210000012096490870800702F06DF800F5FA602A
:1021100085B22946600702F047F811E0032C0FD181
:1021200000209049087001208F490870864802F00D
:102130005AF800F5FA6085B22946834802F034F86F
:1021400070BD10B50446012C13D100217E4801F06A
:1021500093FD002202217C4801F0A9FD00217D4869
:1021600002F037F901207949087000207849087099
:102170002AE0022C13D10021600701F07DFD00222E
:102180000221480701F093FD0021754802F021F972
:1021900001207149087000207049087014E0032C78
:1021A00012D10021684801F067FD00220221664833
:1021B00001F07DFD00216D4802F00BF90120694915
:1021C000087000206849087010BD10B50446012C45
:1021D00004D0022C16D0032C3CD127E05B480078B9
:1021E00030B95B48007818B90120FFF710FF08E00C
:1021F0005648007828B95648007810B10120FFF7FA
:1022000065FF27E05448007830B95448007818B981
:102210000220FFF7FCFE08E04F48007828B14F4845
:10222000007810B10220FFF751FF13E04D4800780D
:1022300030B94D48007818B90320FFF7E8FE08E0F0
:102240004848007828B94848007810B10320FFF7C3
:102250003DFF00BF00BF10BD4849086070474849B6
:102260000860704710B540F225513A4802F0A2F9D3
:1022700050B10120FFF7A9FF364802F01BF9C4B2A4
:1022800021463B4800F088F810BD10B540F22551BA
:10229000334802F08FF950B10220FFF796FF304823
:1022A00002F008F9C4B22146324800F075F810BDBA
:1022B00010B540F225512D4802F07CF910B10320F1
:1022C000FFF783FF10BD10B50221480701F09DFF05
:1022D00078B10221480701F0A9FF0220FFF731FF82
:1022E0002648006810B12548006880470220FFF7A3
:1022F0005CFE0121880701F088FF18B101218807E1
:1023000001F094FF10BD10B502210F4801F07DFFD0
:1023100078B102210C4801F089FF0120FFF711FF7D
:102320001748006810B11648006880470120FFF781
:102330003CFE0121044801F068FF18B10121024868
:1023400001F074FF10BD0000000400408C0000206C
:102350008D000020003801408E0000208F000020FA
:102360000044004090000020910000200048004000
:10237000D4060020E0070020EC0800209400002094
:1023800098000020016000238380C3800281704791
:1023900000218180C180704710B50246D088401C62
:1023A000138990FBF3F403FB14009388984201D146
:1023B000012000E0002060B9D3881068C154D088A3
:1023C000401C138990FBF3F403FB1400D080002021
:1023D00010BD4FF0FF30FBE710B502469088D38860
:1023E000984201D1012000E0002068B9938810686C
:1023F000C05C08709088401C138990FBF3F403FBC9
:1024000014009080002010BD4FF0FF30FBE710B5A6
:102410000146CA880B891A448B88D21A0B8992FB11
:10242000F3F403FB142290B210BD0000834800882F
:10243000C0F3090050B181480088C0F30900C0F51D
:1024400080607E49096808447C490860704770B51F
:102450000C4619460BE0794D2D6805EB80252E19A9
:102460005D1A36F815501580921C4D1EA9B2002930
:10247000F1D170BD2DE9F04104460D4617461E46C8
:102480004FF00008A819B0F5806F02DD0020BDE80C
:10249000F081B04600F061F95DB9352000F0F8FB3D
:1024A0006649096801EB842000F09CF908B9002016
:1024B000EDE714E0614A126802EB84225319A6EB9F
:1024C000080203EB4200398800F08FFA042801D09B
:1024D0000020DCE7BF1CA8F101001FFA80F8B8F16A
:1024E000000FE7D100F045F90120D0E72DE9F047D2
:1024F00005460E4614460027B84600F02EF966B988
:10250000352000F0C5FB4D49096801EB852000F03E
:1025100069F910B90020BDE8F08702E0781C87B2A5
:10252000641C20780028F9D1B819B0F5806F0ADA58
:102530004249096801EB8521314401EB0800394625
:1025400000F053FA01E00020E5E708F10208E41B7F
:1025500023E06078217800EB01201FFA80F9A41CA9
:102560003649096801EB8521314401EB08004946F1
:1025700000F03BFA08F10208B81E87B2012F0CD117
:1025800094F800902D49096801EB8521314401EB55
:102590000800494600F029FA641C20780028D8D1A8
:1025A00000F0E7F80120B6E7F0B503460C4600213D
:1025B000002500272148006800EB83202044415B70
:1025C0000819B0F5806F01DD0020F0BDAD1C0F468D
:1025D00018E01A48006800EB83202044465B301264
:1025E00010705670AD1C881E81B2921C012909D151
:1025F0001248006800EB83202044465B1670481E9A
:1026000081B2521C0029E4DC00201070D21B012092
:10261000DBE710B5044600F0A0F8352000F038FBE9
:102620000649096801EB842000F0DCF808B90020B5
:1026300010BD00F09EF80120FAE700009C00002089
:1026400031490143314A1160704770B500210023C0
:102650000F22C47804B32D4C246804F4E064C4F55C
:10266000E064210AC1F10403CA40447804FA03F18A
:102670008478144021430901254C0678A15504783B
:1026800004F01F050124AC4005786D11AD0005F183
:10269000E025C5F8004109E0047804F01F05012495
:1026A000AC401C4D0678761145F8264070BD1A4A9C
:1026B0000A400243154B1B1F1A60704739B1134A79
:1026C000121D12680243114B1B1D1A6006E00F4ACF
:1026D000121D126882430D4B1B1D1A60704704289F
:1026E00008D14FF0E021096941F004014FF0E022E8
:1026F000116107E04FF0E021096921F004014FF07A
:10270000E0221161704700000000FA050CED00E0C6
:1027100000E400E080E100E080FFFF1F01460020B0
:10272000FE4A106800F03800084310607047FB490B
:10273000096821F00801F94A11601146096801434E
:1027400011607047F549096821F01001F34A1160E2
:1027500011460968014311607047F148EF4948602C
:10276000F04848607047EE48EC494860ED484860E2
:102770007047EA48006940F08000E8490861704706
:10278000E648006940F08000E44908617047042091
:10279000E249C96801F0010109B101200EE0DF49F9
:1027A000C96801F0040109B1022007E0DB49C968EA
:1027B00001F0100109B1032000E00420704700B5CA
:1027C00002460423FFF7E3FF034603E0FFF7DFFFC2
:1027D0000346521E012B01D1002AF7D102B905236D
:1027E000184600BD30B5044604254FF43020FFF7ED
:1027F000E6FF0546042D17D1C848006940F00200E5
:10280000C649086108464461006940F0400008611B
:102810004FF43020FFF7D3FF0546C048006941F66A
:10282000FD710840BD490861284630BD10B504243B
:102830004FF43020FFF7C3FF0446042C16D1B748ED
:10284000006940F00400B54908610846006940F09D
:10285000400008614FF43020FFF7B1FF0446AF4855
:10286000006941F6FB710840AC490861204610BD83
:1028700000B502460423FFF78AFF034603E0FFF793
:1028800086FF0346521E012B01D1002AF7D102B95F
:102890000523184600BD10B504244FF43020FFF77F
:1028A000E7FF0446042C16D19C48006940F0040060
:1028B0009A4908610846006940F0400008614FF4F9
:1028C0003020FFF7D5FF04469448006941F6FB71BC
:1028D000084092490861204610BD00208F49C9690F
:1028E00001F0020109B1012000E00020704730B57D
:1028F000A5250424FFF7F1FF00B100254FF4302097
:10290000FFF75DFF0446042C3AD18548834988606F
:10291000844888600846006940F020000861084645
:10292000006940F0400008614FF43020FFF747FF96
:102930000446042C1BD17948006941F6DF71084038
:10294000764908610846006940F010000861764841
:102950000580E002FFF733FF0446052C10D06F48D6
:10296000006941F6EF7108406C49086108E0052CE8
:1029700006D06A48006941F6EF710840674908616E
:10298000204630BD78B506460C4604250020009050
:10299000E802FFF714FF0546042D24D15F480069C3
:1029A00040F001005D4908613480E802FFF707FF4D
:1029B0000546042D10D1B01C0090200C0099088011
:1029C000E802FFF7FCFE05465448006941F6FE7137
:1029D00008405249086106E05048006941F6FE711E
:1029E00008404E490861284678BD70B504460D463A
:1029F0000426F002FFF7E3FE0646042E11D14748F5
:102A0000006940F00100454908612580F002FFF7A8
:102A1000D6FE06464148006941F6FE7108403F492E
:102A20000861304670BD70B505460E460424E002CC
:102A3000FFF7C5FE0446042C17D139483749886092
:102A4000384888600846006940F0100008612E8010
:102A5000E002FFF7B4FE0446052C06D02F480069BB
:102A600041F6EF7108402D490861204670BD2DE9FF
:102A7000F04304464FF6FF763746B046B14604258C
:102A8000E443E6B2C4F30727C4F307484FEA1469E6
:102A9000E802FFF794FE0546042D49D120481F495E
:102AA0008860204888600846006940F0100008618E
:102AB000FF2E06D01C4808300680E802FFF77FFE94
:102AC0000546042D08D1FF2F06D017480A3007808D
:102AD000E802FFF774FE0546042D0AD1B8F1FF0F96
:102AE00007D011480C30A0F80080E802FFF767FE1D
:102AF0000546042D0AD1B9F1FF0F07D00A480E3060
:102B0000A0F80090E802FFF75AFE0546052D0FD009
:102B10000248006941F6EF71084007E000200240DA
:102B200023016745AB89EFCD00F8FF1F66490861B7
:102B30002846BDE8F08330B5054604244FF4302024
:102B4000FFF73DFE0446042C41D160485E49886091
:102B50005F4888600846006940F020000861084628
:102B6000006940F0400008614FF43020FFF727FE75
:102B70000446042C22D15448006941F6DF71084014
:102B8000514908610846006940F0100008611DB114
:102B900000205049088002E0A5204E4908804FF4EB
:102BA0003020FFF70CFE0446052C10D04648006983
:102BB00041F6EF7108404449086108E0052C06D051
:102BC0004148006941F6DF7108403F4908612046ED
:102BD00030BDF0B505460E46174604243B483A4939
:102BE00088603B488860E002FFF7E9FD0446042C5A
:102BF00019D13548006940F010003349086147F0A9
:102C0000F800304328433349891C0880E002FFF76D
:102C1000D6FD0446052C06D02B48006941F6EF711D
:102C20000840294908612046F0BD2748C06980084E
:102C300070472548006A704700202349096801F061
:102C4000200109B1012000E00020704729B11E4A8F
:102C5000126902431C4B1A6104E01B4A1269824349
:102C6000194B1A61704701460020012908D1164A04
:102C7000D26902F001020AB1012008E0002006E05A
:102C8000114AD2680A400AB1012000E000207047D2
:102C90000D49C860704704200B49C96801F0010163
:102CA00009B101200EE00849C96801F0040109B129
:102CB000022007E00449C96801F0100109B10320AE
:102CC00000E0042070470000002002402301674517
:102CD000AB89EFCD00F8FF1F10B50446CC48844205
:102CE00008D10121042000F04DFB0021042000F058
:102CF00049FB46E0C748844208D10121082000F082
:102D000041FB0021082000F03DFB3AE0C24884422C
:102D100008D10121102000F035FB0021102000F027
:102D200031FB2EE0BD48844208D10121202000F073
:102D300029FB0021202000F025FB22E0B848844236
:102D400008D10121402000F01DFB0021402000F0AF
:102D500019FB16E0B348844208D10121802000F01D
:102D600011FB0021802000F00DFB0AE0AE488442F8
:102D700007D10121801500F005FB0021A01500F00E
:102D800001FB10BD10B50121084600F0FBFA00213F
:102D9000012000F0F7FA10BD2DE9F04102460025B0
:102DA0000026002000230024002791F803C00CF027
:102DB0000F0591F803C00CF0100CBCF1000F03D00C
:102DC00091F802C04CEA050591F800C0BCF1000F73
:102DD00031D0146800202BE04FF0010C0CFA00F306
:102DE000B1F800C00CEA03069E4220D183004FF0E8
:102DF0000F0C0CFA03F7BC4305FA03FC4CEA04047D
:102E000091F803C0BCF1280F06D14FF0010C0CFA69
:102E100000FCC2F814C00AE091F803C0BCF1480FEE
:102E200005D14FF0010C0CFA00FCC2F810C0401C98
:102E30000828D1D31460B1F800C0BCF1FF0F34DD15
:102E4000546800202EE000F1080C4FF0010808FA49
:102E50000CF3B1F800C00CEA03069E4221D18300B6
:102E60004FF00F0C0CFA03F7BC4305FA03FC4CEAD5
:102E7000040491F803C0BCF1280F05D100F1080C3F
:102E800008FA0CF8C2F8148091F803C0BCF1480F9E
:102E900007D100F1080C4FF0010808FA0CF8C2F84D
:102EA0001080401C0828CED35460BDE8F0814FF656
:102EB000FF710180022181700421C17070470246B8
:102EC000002093680B400BB1012000E00020704708
:102ED0000146886880B2704702460020D3680B40E4
:102EE0000BB1012000E0002070470146C86880B2A5
:102EF000704701617047416170470AB1016100E0AC
:102F000041617047C16070474FF480320A4382616B
:102F10008161826182698269704702460020434B69
:102F200018684FF68073184040EA021008433F4B80
:102F3000186070473E49C8617047F0B50A460023E3
:102F400000240021002500F00046B6F1004F02D118
:102F5000364EF16901E0354E7168C0F3034583B226
:102F600000F44016B6F5401F08D121F070612F4ED5
:102F7000766826F070662D4F7E6012E000F48016B1
:102F8000B6F5801F06D1032606FA05F4A14341F0E9
:102F9000706106E0460D360103FA06F6B14341F0D2
:102FA000706122B1460D360103FA06F6314300F096
:102FB0000046B6F1004F02D11C4EF16101E01B4EFC
:102FC0007160F0BD30B500228B071C0F0F2303FA90
:102FD00004F2164B08338C1053F824309343134CEF
:102FE00008348D1044F8253023468C1053F82430D3
:102FF0008C07240F00FA04F423430C4C08348D1082
:1030000044F8253030BD0A49DC31086070470000C3
:1030100000080140000C0140001001400014014074
:1030200000180140001C0140002001400000014048
:10303000000020420E49086070470D494860704703
:103040000B49886070474AF6AA2009490860704712
:103050004CF6CC4006490860704701460020044AFF
:10306000D2680A400AB1012000E000207047000049
:1030700000300040DF48006840F00100DD49086092
:1030800008464068DC490840DA494860084600685C
:10309000DA490840D74908600846006820F48020D3
:1030A00008600846406820F4FE0048604FF41F00A6
:1030B00088607047CF49096821F48031CD4A11609A
:1030C0001146096821F480211160B0F5803F03D0DA
:1030D000B0F5802F0ED106E0C649096841F4803171
:1030E000C44A116007E0C349096841F4A021C14AFC
:1030F000116000E000BF00BF704710B5014600221C
:10310000002300204A11012A02D1BA4C236806E0AC
:10311000022A02D1B74C236A01E0B64C636A01F07F
:103120001F02012494401C400CB1012000E000204B
:1031300010BD38B5002000900024002500BF3120CC
:10314000FFF7DBFF05460098401C00900098B0F5A3
:10315000A06F01D0002DF2D03120FFF7CEFF08B1D3
:10316000012400E00024204638BD01460020A14A89
:10317000106820F0F80040EAC10010607047A049D4
:1031800008607047024600209A4B586820F47C1073
:1031900042EA01031843974B586070479849086604
:1031A000704701460020934A506820F0030008430E
:1031B000506070478F48406800F00C00704701462F
:1031C00000208C4A506820F0F0000843506070479F
:1031D00001460020874A506820F4E06008435060B0
:1031E000704701460020834A506820F4605040EA4E
:1031F000C1005060704729B17E4A527A02437D4B2C
:103200005A7204E07B4A527A82437A4B5A72704770
:103210007B49D8310860704701460020754A5068E4
:1032200020F440400843506070470021714A20322A
:103230001170704A82F82010012802D004280AD1A7
:1032400004E001216B4A2032117005E00521694A32
:103250002032117000E000BF00BF7047694908606C
:1032600070476449096A0143624A116270476549BF
:1032700044390860704730B5002100220024002343
:103280005C4D6D6805F00C0121B1042905D00829B9
:1032900023D105E05C4D056022E05B4D05601FE039
:1032A000544D6D6805F47012524D6D6805F480340C
:1032B000022505EB92421CB9544D554305600BE0C5
:1032C0004C4D6D6805F400351DB1504D55430560FA
:1032D00002E04D4D5543056002E04B4D056000BFD7
:1032E00000BF444D6D6805F0F0010909484D6B5C65
:1032F0000568DD4045603F4D6D6805F4E061090AF1
:10330000434D6B5C4568DD4085603A4D6D6805F462
:103310006051C90A3E4D6B5C4568DD40C560354D66
:103320006D6805F44041890B3A4D6B5CC568B5FB8F
:10333000F3F5056130BD29B12E4A526902432D4B88
:103340005A6104E02B4A526982432A4B5A61704702
:1033500029B1284A92690243264B9A6104E0254A22
:1033600092698243234B9A61704729B1214AD269FD
:103370000243204BDA6104E01E4AD26982431D4BAE
:10338000DA61704729B11B4AD2680243194BDA60EF
:1033900004E0184AD2688243164BDA60704729B1BC
:1033A000144A12690243134B1A6104E0114A12696C
:1033B0008243104B1A6170471249403908607047C8
:1033C0000F49C86470470B49C87170470948406A83
:1033D00040F0807007494862704701460020054A66
:1033E00092680A400AB1012000E0002070470149BC
:1033F00088727047001002400000FFF8FFFFF6FEE1
:10340000000042428004424200127A0000093D005E
:10341000A0000020B000002010B50446FE48844201
:1034200008D10121C014FFF7ADFF0021E014FFF720
:10343000A9FFC4E0B4F1804F08D101210846FFF78D
:10344000AEFF00210120FFF7AAFFB8E0F348844255
:1034500008D101210220FFF7A2FF00210220FFF77F
:103460009EFFACE0EE48844208D101210420FFF722
:1034700096FF00210420FFF792FFA0E0E948844274
:1034800008D101210820FFF78AFF00210820FFF75B
:1034900086FF94E0E448844208D101211020FFF720
:1034A0007EFF00211020FFF77AFF88E0DF4884428A
:1034B00008D101212020FFF772FF00212020FFF713
:1034C0006EFF7CE0DA48844208D101214014FFF706
:1034D00059FF00216014FFF755FF70E0D548844282
:1034E00009D10121C804FFF74DFF00214FF400204E
:1034F000FFF748FF63E0D048844209D10121080565
:10350000FFF740FF00214FF48010FFF73BFF56E02C
:10351000CA48844209D101214805FFF733FF002141
:103520004FF40010FFF72EFF49E0C548844208D150
:1035300001214020FFF733FF00214020FFF72FFF3C
:103540003DE0C048844208D101218020FFF727FFD9
:1035500000218020FFF723FF31E0BB48844208D1DF
:1035600001218015FFF71BFF0021A015FFF717FFB2
:1035700025E0B648844209D101210804FFF702FF83
:1035800000214FF48030FFF7FDFE18E0B048844280
:1035900009D101214804FFF7F5FE00214FF4003066
:1035A000FFF7F0FE0BE0AB48844208D1012188040C
:1035B000FFF7E8FE00214FF48020FFF7E3FE10BD87
:1035C00000220288944B98420ED0994B98420BD01F
:1035D000B0F1804F08D0914B984205D0904B984263
:1035E00002D0904B984204D14FF68F731A404B880B
:1035F0001A438D4B984207D08C4B984204D04FF61B
:10360000FF431A40CB881A4302808B8883850B883E
:103610000385814B98420BD0854B984208D08B4B49
:10362000984205D08A4B984202D08A4B984201D1E9
:103630000B7A038601238382704770B50024002231
:103640000023058C4FF6FE7635400584028C838876
:10365000048B4FF68F752C40B51E2C400D882C43E3
:10366000751E2A400D892A434D882A436A4DA84277
:103670000BD06F4DA84208D0744DA84205D0744DB0
:10368000A84202D0734DA84213D14FF6F7752A40D5
:103690004D892A434FF6FB752A408D882A434FF601
:1036A000FF652B404FF6FF552B408D892B43CD896D
:1036B0002B4383800483CD888586028470BD70B5DA
:1036C000002400220023058C4FF6EF763540058458
:1036D000028C8388048B48F6FF752C404FF6FF451B
:1036E0002C400D884FF6FF7606EA05252C434FF651
:1036F000DF752A400D8906EA05152A434D8806EA3A
:1037000005152A43444DA84202D0494DA8421DD177
:103710004FF67F752A404D894FF6FF7606EA05156C
:103720002A434FF6BF752A408D8806EA05152A43BD
:103730004FF6FF352B404FF2FF752B408D8906EA7F
:1037400085052B43CD8906EA85052B4383800483B9
:10375000CD880587028470BD70B500240022002347
:10376000058C4FF6FF6635400584028C8388848B78
:103770004FF68F752C404FF6FC752C400D882C436E
:103780004FF6FF552A400D894FF6FF7606EA0525CC
:103790002A434D8806EA05252A431F4DA84202D038
:1037A000234DA8421DD14FF2FF752A404D894FF697
:1037B000FF7606EA05252A434FF6FF352A408D8815
:1037C00006EA05252A434EF6FF752B404DF6FF7598
:1037D0002B408D8906EA05152B43CD8906EA051590
:1037E0002B4383808483CD888587028470BD70B528
:1037F000002200230024058C4EF6FF763540058418
:10380000038C8488828B48F6FF752A404FF6FF456B
:103810002A400D8820E00000002C014000040040F8
:1038200000080040000C0040001000400014004060
:1038300000340140004C0140005001400054014060
:1038400000180040001C00400020004000400140E3
:1038500000440140004801404FF6FF7606EA052586
:103860002A434DF6FF752B400D8906EA05352B439B
:103870004D8806EA05352B43FA4DA84202D0FA4D91
:10388000A84208D14BF6FF752C408D894FF6FF7684
:1038900006EA85152C4384808283CD88A0F84050A9
:1038A000038470BD828B4FF2FF331A408283828B78
:1038B0004FF6FF7303EA01231A4382837047F0B582
:1038C0000C461546002200210026078C4EF6FF7C90
:1038D00007EA0C070784828B018C4FF6FF7707EA13
:1038E000043640F6FF473A404FF6FF7707EA0527D0
:1038F0003A434FF6FF7707EA03373A43D94FB842C6
:103900000ED0D94FB8420BD0B0F1804F08D0D74F6E
:10391000B84205D0D64FB84202D0D64FB84206D1F1
:103920004DF6FF77394046F48057394305E047F6B6
:10393000FF57394044F48057394382830184F0BDF6
:10394000828B4FF6F3731A408283828B0A43828301
:103950007047F0B50C461546002200210026078C62
:103960004FF6FF6C07EA0C070784828B018C4FF639
:10397000FF7707EA04264FF60C773A404FF6FF77B9
:1039800007EA03172F433A43B64FB8420ED0B64F5B
:10399000B8420BD0B0F1804F08D0B44FB84205D038
:1039A000B34FB84202D0B34FB84206D14FF6FF57DB
:1039B000394046F48077394305E04FF2FF573940EC
:1039C00044F48077394382830184F0BD028B4FF247
:1039D000FF331A400283028B4FF6FF7303EA012381
:1039E0001A4302837047F0B50C46154600220021A9
:1039F0000026078C4FF6EF7C07EA0C070784028B42
:103A0000018C4FF6FF7707EA041640F6FF473A406D
:103A10004FF6FF7707EA03373A434FF6FF7707EA97
:103A200005273A438F4FB8420ED08F4FB8420BD084
:103A3000B0F1804F08D08D4FB84205D08C4FB842BE
:103A400002D08C4FB84206D14FF6DF77394046F0AE
:103A50001007394305E04FF65F77394044F010070F
:103A6000394302830184F0BD028B4FF6F3731A4091
:103A70000283028B0A4302837047F0B50C46154659
:103A800000220021068C4FF6FE773E400684028B12
:103A9000018C4FF60C7632407E1C06EA03162E434C
:103AA0003243704EB0420ED06F4EB0420BD0B0F1E8
:103AB000804F08D06D4EB04205D06D4EB04202D05E
:103AC0006C4EB04206D14FF6FD76314044F001060F
:103AD000314305E04FF6F576314044F001063143BD
:103AE00002830184F0BD70B505460C465D488542F1
:103AF0000ED05D4885420BD0B5F1804F08D05B48B1
:103B0000854205D05A48854202D05A48854200D1A4
:103B100000E000BF208850B92389A2886188284628
:103B2000FFF7ABFFE1882846FFF79EFF25E02088DE
:103B300004280AD12389A28861882846FFF753FF09
:103B4000E1882846FFF742FF17E0208808280AD1BD
:103B50002389A28861882846FFF7FBFEE188284672
:103B6000FFF7EEFE09E02389A28861882846FFF767
:103B7000A6FEE1882846FFF795FE70BD2DE9F041CD
:103B800005460C4600260127608808B9022600E099
:103B90000026A088012801D1022700E00127208803
:103BA000A0B92389A28861882846FFF766FFE188CB
:103BB0002846FFF759FF23893A4631462846FFF742
:103BC00012FFE1882846FFF701FF13E02389A2884E
:103BD00061882846FFF707FFE1882846FFF7F6FED1
:103BE00023893A4631462846FFF747FFE1882846B1
:103BF000FFF73AFFBDE8F0810A884B881A438B88AB
:103C00001A43CB881A430B891A434B891A438B8971
:103C10001A43A0F8442070474FF6FF7181800021BD
:103C20000180C18041800172704700210180418084
:103C30008180C180018141818181C18170470021E2
:103C400001804180012181800021C1800181704774
:103C50000021018041808180C18001814181818179
:103C600070470000002C0140003401400004004077
:103C700000080040000C004021B1028842F001021F
:103C8000028004E002884FF6FE731A4002807047FB
:103C900031B1B0F8442042F40042A0F8442005E0DD
:103CA000B0F84420C2F30E02A0F8442070471AB1C5
:103CB00083890B43838102E083898B43838170472F
:103CC0008182704741EA0203A0F8483070471AB178
:103CD00083890B43838102E083898B43838170470F
:103CE00001894FF6F8721140018170470A460021A0
:103CF00001894FF68F73194011430181704730B528
:103D000004460D4629462046FFF7F0FF208940F083
:103D10000700208130BD2DE9F04104460D461646CE
:103D20001F46602D06D13B46012231462046FFF753
:103D30005AFE05E03B46012231462046FFF79DFE34
:103D400029462046FFF7D2FF208940F00700208156
:103D5000BDE8F08130B50C4600210189C9B24FF6AB
:103D6000FF7505EA0325154325432943018130BD2D
:103D70002DE9F04105460E46174698460024434675
:103D80003A4631462846FFF7E5FF2C894FF6F87092
:103D9000044044F007044FF68F70044044F0700470
:103DA0002C81BDE8F081F0B504460D4616461F464D
:103DB0003B46324629462046FFF7CCFF208940F497
:103DC00080402081F0BD0185828270470A46002133
:103DD00001884FF68F731940114301807047F0B589
:103DE0000C4615461E460021002200230189028B45
:103DF000038C4FF6F877394021434FF6FC473A40A1
:103E000040F201173A434FF6DD773B404FF6FF771C
:103E100007EA06172F433B43018102830384F0BD69
:103E20000A460021018B4FF68F731940114301831D
:103E300070470A460021018B48F6FF7319404FF680
:103E4000FF7303EA02231943018370470A460021E6
:103E5000818B4FF68F7319401143818370470A4657
:103E60000021818B48F6FF7319404FF6FF7303EA78
:103E7000022319438183704721B1028842F08002F6
:103E8000028004E002884FF67F731A400280704778
:103E900021B1828842F00402828004E082884FF6D9
:103EA000FB731A408280704721B1828842F0080279
:103EB000828004E082884FF6F7731A408280704750
:103EC00021B1828842F00102828004E082884FF6AC
:103ED000FE731A40828070470A460021018B4FF61C
:103EE000F77319401143018370470A460021018B83
:103EF0004FF2FF7319404FF6FF7303EA0223194391
:103F0000018370470A460021818B4FF6F7731940F1
:103F10001143818370470A460021818B4FF2FF7362
:103F200019404FF6FF7303EA022319438183704758
:103F30000A460021018B4FF6FB73194011430183A0
:103F400070470A460021018B4FF6FF3319404FF6A8
:103F5000FF7303EA02231943018370470A460021D5
:103F6000818B4FF6FB7319401143818370470A46DA
:103F70000021818B4FF6FF3319404FF6FF7303EAA0
:103F800002231943818370470A460021018B4FF6B3
:103F90007F7319401143018370470A460021018B4A
:103FA000C1F30E014FF6FF7303EA022319430183A5
:103FB00070470A460021818B4FF67F7319401143E9
:103FC000818370470A460021818BC1F30E014FF6B1
:103FD000FF7303EA02231943818370470A460021D5
:103FE000018C4FF6FD7319401143018470470A4656
:103FF0000021018C4FF6F77319401143018470477B
:104000000A460021018C4FF6DF7319404FF6FF730B
:1040100003EA02131943018470470A460021018C08
:104020004FF67F7319404FF6FF7303EA02131943EB
:10403000018470470A460021018C4FF6FF53194056
:104040004FF6FF7303EA02231943018470470A46BF
:104050000021018C4FF2FF7319404FF6FF7303EA02
:1040600002231943018470470A460021018C4DF652
:10407000FF7319404FF6FF7303EA023319430184BB
:10408000704730B5002301248C40A3B2048C9C43BC
:104090000484048C02FA01F5ADB22C43048430BDD3
:1040A00030B5002304248C40A3B2048C9C430484C8
:1040B000048C02FA01F5ADB22C43048430BD70B516
:1040C0000346002000241846183001258D40ACB26C
:1040D0001D8CA5431D8409B1082909D100EB61009D
:1040E000056825F0700505600568154305600EE05C
:1040F0000D1FC5F34E052844056825F4E04505600D
:1041000005684FF6FF7606EA02263543056070BD66
:1041100021B1028842F00202028004E002884FF6D8
:10412000FD731A400280704721B1028842F00402F8
:10413000028004E002884FF6FB731A400280704749
:1041400021B1828842F08002828004E082884FF6AA
:104150007F731A408280704702884FF6F7731A40C7
:10416000028002880A430280704782884FF68F736C
:104170001A40828082880A438280704702894FF603
:10418000F8731A40028102890A430281704702894A
:104190004FF67F731A40028102890A4302817047F9
:1041A0008184704781857047818670470187704799
:1041B00081877047A0F84010704702884FF6FF4390
:1041C0001A40028002880A43028070470146888EA6
:1041D00070470146088F70470146888F7047014637
:1041E000B1F8400070470146888C70470146088D41
:1041F000704702460020138A0B400BB1012000E0FB
:1042000000207047CA430282704730B50246002042
:1042100000230024158A05EA0103958905EA0104B3
:1042200013B10CB1012000E0002030BDCA4302826E
:104230007047000010B50446FB48844209D10121B3
:104240008803FFF79FF800214FF48040FFF79AF8AA
:1042500032E0F648844209D101214804FFF79FF873
:1042600000214FF40030FFF79AF825E0F04884422F
:1042700009D101218804FFF792F800214FF4802032
:10428000FFF78DF818E0EB48844209D10121C804FA
:10429000FFF785F800214FF40020FFF780F80BE0CE
:1042A000E548844208D101210805FFF778F800218C
:1042B0004FF48010FFF773F810BD2DE9F04786B07A
:1042C00005460E460024A24600BFA1460027B0893D
:1042D00000B100BF2F462C8A4CF6FF700440F088D6
:1042E00004432C82AC894EF6F3100440B088318927
:1042F0000843718908430443AC81AC8A4FF6FF4000
:104300000440B0890443AC8201A8FEF7B4FFC6485C
:10431000874202D1DDF810A001E0DDF80CA0A889E9
:1043200000F4004040B10AEBCA0000EB0A1031680B
:104330004900B0FBF1F807E00AEBCA0000EB0A10F5
:1043400031688900B0FBF1F86420B8FBF0F004019B
:104350002009642101FB1089A88900F4004040B1C4
:10436000322000EBC900B0FBF1F000F0070004437D
:1043700008E0322000EB09106421B0FBF1F000F0FE
:104380000F0004432C8106B0BDE8F0874FF41651AE
:10439000016000218180C18001810C2141810021C7
:1043A0008181704710B502460020108A4FF2FF034A
:1043B00018400B884C8823438C882343CC882343A4
:1043C0001843108210BD0021018041808180C1808E
:1043D000704721B1828942F40052828104E08289CF
:1043E0004DF6FF731A4082817047F0B503460024F2
:1043F00000260025002040F66A17B94200D100BF10
:104400001846C1F3421401F01F06012707FA06F50A
:10441000012C01D10C3004E0022C01D1103000E05D
:1044200014301AB107682F43076002E00768AF43F2
:104430000760F0BD1AB1838A0B43838202E0838A4E
:104440008B4383827047028A4FF6F0731A400282D0
:10445000028A0A430282704782894FF2FF731A4030
:10446000828182890A438281704721B1828942F028
:104470000202828104E082894FF6FD731A40828134
:104480007047028A4FF6DF731A400282028A0A439B
:104490000282704721B1028A42F48042028204E023
:1044A000028A4BF6FF731A4002827047C1F308027A
:1044B0008280704701468888C0F308007047818970
:1044C00041F0010181817047028BD2B20283028BDD
:1044D00042EA012202837047028B02F47F42028388
:1044E000028B0A430283704721B1828A42F0200284
:1044F000828204E0828A4FF6DF731A40828270471C
:1045000021B1828A42F01002828204E0828A4FF650
:10451000EF731A408282704721B1828A42F008020A
:10452000828204E0828A4FF6F7731A4082827047D3
:1045300021B1828942F40042828103E08289C2F380
:104540000E028281704721B1828A42F40062828227
:1045500004E0828A4FF2FF731A4082827047828A97
:104560004FF6FB731A408282828A0A438282704726
:1045700021B1828A42F00202828204E0828A4FF6EE
:10458000FD731A408282704702460020B1F5007F19
:1045900000D100BF13880B400BB1012000E00020C8
:1045A000704701F40072B2F5007F00D100BFCA432A
:1045B0000280704770B502460024002300250020C9
:1045C00040F66A16B14200D100BFC1F3421501F0B6
:1045D0001F03012606FA03F3012D02D19689334009
:1045E00006E0022D02D1168A334001E0968A33405C
:1045F0000C12012606FA04F41688344013B10CB1EB
:10460000012000E0002070BD10B50022002340F61C
:104610006A14A14200D100BF0A1201249440A3B23F
:10462000DC43048010BD000000380140004400401D
:1046300000480040004C00400050004009488047BE
:1046400009480047FEE7FEE7FEE7FEE7FEE7FEE774
:10465000FEE7FEE7FEE7FEE704480549054A064B8C
:1046600070470000EF0F000831010008580A0020D1
:1046700058100020580C0020580C002070470000F3
:104680000FB4044910B503AA029800F005FA10BC53
:104690005DF814FB8800002070B504468569006849
:1046A000C10601D5302600E02026C00707D070BD26
:1046B000D4E9012130469047206A401C20626D1EDB
:1046C000F6D570BD70B5044685690078C00707D17E
:1046D00070BDD4E9012120209047206A401C20624F
:1046E0006D1EF6D570BD00002DE9F0410646002490
:1046F00010687529314616A510D0AFF30080002848
:1047000002DA404213A507E031688A0701D512A5F5
:1047100002E0490704D511A5012401E0AFF30080B0
:1047200000210A2206F1240709E0B0FBF2FCB0FBED
:10473000F2F302FB1C00303078541846491C002864
:10474000F3D123462A463046BDE8F04100F04BB98C
:10475000000000002D0000002B00000020000000E1
:1047600070B504460D4621461068AFF300802188DD
:10477000090502D50F4A7A4402E00E4A7A440E3205
:10478000002104F1240305E000F00F060009965D06
:104790005E54491C0028F7D120780023000704D577
:1047A000702D02D009B1022311322046BDE87040BD
:1047B00000F019B91A0E00002DE9F05F8946044691
:1047C0004FF0000ADFF824B1FB44C0F820A02046D7
:1047D000E168884700287DD0252806D0D4E901214A
:1047E0009047206A401C2062F1E700255F46204682
:1047F000E16888472028064607DB312E05D2B81924
:1048000010F8200C08B10543F1E7A80701D525F001
:104810000405C4F81CA00027C4F818A02A2E09D04B
:10482000304600F099F938B304EB8708303EC8F8F9
:10483000186019E059F8041B204604EB87029161C7
:10484000E1688847012F064618D1E069002820DA80
:1048500025F020051DE0D8F8180000EB800006EBDD
:1048600040003038C8F818002046E16888470646FE
:1048700000F072F90028EED1012F0AD02E2E08D1B7
:104880002046E16888477F1C0646022F45F0200538
:10489000C4DBA069002803DA404245F00105A061AD
:1048A000E80701D025F01005A6B1A6F141001928AE
:1048B00002D8203645F400654A4631462046256038
:1048C0004D46FBF76FFC60B1012807D0ED1D25F0C8
:1048D000070000E007E000F1080978E705F10409A6
:1048E00075E730467AE7206ABDE8F09FF00D0000DA
:1048F000032A40F2308010F0030C00F0158011F80C
:10490000013BBCF1020F624498BF11F801CB00F8E3
:10491000013B38BF11F8013BA2F1040298BF00F837
:1049200001CB38BF00F8013B11F0030300F02580F4
:10493000083AC0F0088051F8043B083A51F804CB1B
:10494000A0E80810F5E7121D5CBF51F8043B40F8E1
:10495000043BAFF30080D20724BF11F8013B11F8EC
:1049600001CB48BF11F8012B24BF00F8013B00F830
:1049700001CB48BF00F8012B704710B5203AC0F0BA
:104980000B80B1E81850203AA0E81850B1E8185050
:10499000A0E81850BFF4F5AF5FEA027C24BFB1E88D
:1049A0001850A0E8185044BF18C918C0BDE81040FE
:1049B0005FEA827C24BF51F8043B40F8043B08BF07
:1049C0007047D20728BF31F8023B48BF11F8012BCE
:1049D00028BF20F8023B48BF00F8012B7047704702
:1049E0007047704770472DE9F0470D46994692464B
:1049F000044600F124080168880604D5E06921F026
:104A00001001216000E00120A84201DD471B00E009
:104A10000027A1697A1902EB0900081AA061207821
:104A2000C00602D42046FFF737FE002608E0D4E98E
:104A300001211AF806009047206A401C761C20626B
:104A40004E45F4DB2078C0060AD52046FFF724FE49
:104A500006E0D4E9012130209047206A401C206202
:104A6000381EA7F10107F4DC07E0D4E9012118F8AA
:104A700005009047206A401C2062281EA5F1010510
:104A8000F3DC2046FFF71EFE2078000602D5022048
:104A9000BDE8F0870120FBE7074B70B50D467B446E
:104AA00000F011F80446284600F020F810B14FF04D
:104AB000FF3070BD204670BDBFD0FFFF01694A1CAA
:104AC00002610878704700B58FB0CDE9013100214F
:104AD000059105497944CDE9031011466846FFF771
:104AE0006BFE0FB000BD0000E5FFFFFF007B00F094
:104AF00080007047754600F02BF8AE460500694609
:104B0000534620F00700854618B020B5FFF7A4FDF6
:104B1000BDE820404FF000064FF000074FF00008BE
:104B20004FF0000B21F00701AC46ACE8C009ACE83F
:104B3000C009ACE8C009ACE8C0098D46704710B5A3
:104B40000446AFF300802046BDE81040FBF73FBBB2
:104B500000487047F809002030380A2801D20120A7
:104B6000704700207047000010B591EA030F48BF5E
:104B700083F0004300F12C83841A71EB030C05D2FF
:104B8000121943EB0C03001B61EB0C01DFF824E16D
:104B90004FEA1154A4EB135C1EEA430F18BF9EEAC0
:104BA000445F73D023EA0E03DCF1200E21EA0451A6
:104BB00043F4801332D322FA0CFE10EB0E0023FADA
:104BC0000CFE41EB0E01CCF1200E03FA0EFE10EBB1
:104BD0000E0051F10001B1F5801FCCF1200E32D250
:104BE00001EB045112FA0EF2BDE8104058BF7047B5
:104BF000401C38BF5FEA420218BF7047002814BF4C
:104C000020F0010041F100014FEA410313F5001FBC
:104C100038BF7047A1F1C04100F096BA012A43EBBA
:104C20000302ACF1200CDCF11F0E32BF4FF0000E7E
:104C300023FA0CF310EB030041EB0451B4EB115FCA
:104C4000D0D0A1EB045101F5801149085FEA300092
:104C500001EB04510ED350F1000038BF12FA0EFEE2
:104C600008D1BDE81040C9E7401C38BF5FEA4202E6
:104C7000CAD1C3E7BDE810404FEA410313F5001F56
:104C800038BF7047A1F1C04100F05EBA9EEA445FB0
:104C900008D011EA5E0FBDE8104004BF01F00041EA
:104CA00000207047BDE8104070B500F0FFF900BF6C
:104CB00064FBBE3E0000E0FF491058BFC1F1404117
:104CC0005B1058BFC3F140438B42EFF30080704745
:104CD0002DE9C04130B4DFF8A0C23CEA111418BF7E
:104CE0003CEA131400F0EC8081EA03051CEA11147D
:104CF00044EAD57418BF1CEA131500F0C780A4EB72
:104D000005044FF0004545EAC12145EAC32341EAC5
:104D1000505143EA525304F17F74994204F5003430
:104D20004FEAC0204FEAC22208BF904200F09C80A8
:104D30004FEA13650FF24016765D4FEA134506FB06
:104D400005F7C7F1807706FB07F74FEAD737A7FBD0
:104D500003687642C8F58038A7FB06CE38BFA8F1B5
:104D6000010807FB08E64FF0000EA6FB028CE6FBED
:104D700003CEDCF1000CCEF1004E38BFAEF1010ED7
:104D8000A6FB0C584FF000074FF00005E6FB0E871E
:104D9000A1FB08C6A0FB07CE16EB0E0645F10005E9
:104DA000E1FB076515F1E04E7EBFA4F580345FEAB4
:104DB00046066D4116F1800745F100054FEA1727B9
:104DC0004FEA066647EA0567A6F1DE46B6F1805F60
:104DD0004FEA15251FD9384624F0010C05EBC471A4
:104DE000BCF1FE6F01EB0C1102D8F0BCBDE80081F4
:104DF00024425CBF01F5801E9EEAC47F02D4F0BC51
:104E0000BDE80081244238D4F0BCA1F1C041BDE826
:104E1000004100F099B94FEAD22242EA43524FEAE8
:104E2000D323A7FB02864FEAD02040EA415007FB7C
:104E300003661EEA0E0F4FEAD12105FB026658BF3A
:104E4000A6EB0056B6EB00564FEA520E4EEAC37E72
:104E500018EB0E0E56EB530EBDD518EB02085E4153
:104E60007F1C55F10005B6E74FF480154FF00007A1
:104E70004FF000064FF00008ADE7F0BC4FF0000027
:104E800001F1C04101F00041BDE8008111EA0C1FB1
:104E90000CEA131500D00CE013EA0C1F00F025807B
:104EA0004FF00000F0BC81EA030101F00041BDE8D1
:104EB0000081F0BCBDE8004181EA030100F044B983
:104EC000F0BCBDE8004170B500F0F0F8097EFC3E92
:104ED00000F007B881EA03014FF0000001F0004143
:104EE000704781EA030100F02FB9F0BCBDE8004132
:104EF0004FF0000021497047FFFDFBF9F7F5F4F290
:104F0000F0EEEDEBE9E8E6E4E3E1E0DEDDDBDAD864
:104F1000D7D5D4D3D1D0CFCDCCCBCAC8C7C6C5C4C2
:104F2000C2C1C0BFBEBDBCBBBAB9B8B7B6B5B4B3D9
:104F3000B2B1B0AFAEADACABAAA9A8A8A7A6A5A4C4
:104F4000A3A3A2A1A09F9F9E9D9C9C9B9A99999888
:104F50009797969595949393929191908F8F8E8E2B
:104F60008D8C8C8B8B8A89898888878786858584B8
:104F700084838382828181800000FF070000F87FA4
:104F80004FEA41034FEA5353A3F58063D3F11E0365
:104F9000C8BFD3F1210C0CDD4FF0004242EAC12220
:104FA00042EA505232FA03FC8CEAE17CACEBE1704D
:104FB0007047102BC4BF0020704703F5787CBCF10C
:104FC000FF3F04D06FF0004282EA2100704770B5C5
:104FD00000F06CF84992248000207047F2E710F04E
:104FE000004248BF4042B0FA80F310FA03F10AD001
:104FF000C3F11D0303F580634FEA415002EB0352F6
:1050000002EBD12170474FF000007047B0FA80F3F7
:1050100010FA03F10AD0C3F11D0303F580634FEAD0
:1050200041504FEA035202EBD12170474FF000008C
:105030007047000051EA030C17D41CF5801F58BFBD
:10504000BCF5801F00F10680994218BF704708BF69
:105050009042704707D711F5801F58BF13F5801F86
:1050600019D499427047894270471CF5801F08D5B2
:10507000BCF5801FF7D58B4218BF704708BF82422E
:1050800070474FF4001C1CEB410F38BF1CEB430F63
:1050900001D28B42704770B500F008F892244900A5
:1050A0004FF000514FF08053FFF706BE0EF1020E95
:1050B0002EF0030E5EF8046B364205D4012A43EB52
:1050C000030515F5001F12D8012841EB010C1CF552
:1050D000001F0CD80ED14FEAD17C15F5001F0CEB48
:1050E0004C0C0CF1020C08BF4CEBD37C04E04FF0ED
:1050F000080C01E04FEAD37C0CEB4C0526FA05F6D0
:1051000006F00706B6F1040C06D20EEB860CBDE8DD
:1051100070404CF0010C6047DFE80CF0090B020214
:105120004FF000414FF00000A1F5002170BD19467D
:105130001046012851EB010418BFD4F5001484BFB8
:10514000002001F0004170BD0808A0F500114FEAF1
:105150003101704753EA010C17D41CF5801F58BF6A
:10516000BCF5801F00F106808B4218BF704708BF56
:105170008242704707D713F5801F58BF11F5801F73
:1051800019D48B4270479B4270471CF5801F08D58D
:10519000BCF5801FF7D5994218BF704708BF9042F1
:1051A00070474FF4001C1CEB430F38BF1CEB410F42
:1051B00001D2994270470FB40CBC03BCFFF76BBF20
:1051C00010B591EA030F48BF83F000433FF5D4AC1C
:1051D000841A71EB030C07D212198CF0004C43EBCC
:1051E0000C03001B61EB0C01DFF8A4E14FEA115442
:1051F000A4EB135C1EEA430F18BF9EEA445F00F065
:10520000B08023EA6E03524221EA0451C3EB6E03DD
:1052100038BF5B1EDCF1200E25D322FA0CFE10EB0A
:105220000E0043FA0CFE41EB0E01CCF1200E03FA06
:105230000EFE10EB0E0051F10001CCF1200E29D42E
:1052400012FA0EF201EB0451BDE8104058BF70474E
:10525000401C1CBFB2F1004F704700280CBF491C16
:1052600020F00100704712EB020E43EB030218BF5F
:105270004FF0010E4EEA4202ACF1200CDCF11E0EA2
:1052800054D943FA0CFE10EB0E0051F1FF31CCF172
:105290001E0ED5D50EF1010E12FA0EFE404141EB65
:1052A000010101EB445C5FEA5C5C10D910EBDE703D
:1052B00001EB045138BFBEF1004FBDE8104018BFEC
:1052C000704700280CBF491C20F00100704730D205
:1052D0004FEAD42C11F5001124F400641BD0B1FA6C
:1052E00081F20B3AA41AA41ED2F12003914030FAA5
:1052F00003F31943904001EBCC71002C01EB0451F6
:10530000BDE81040A8BF704701F1C0414FF0000058
:1053100001F000417047B0FA80F310FA03F100D1B8
:1053200010BDE41A173C4805C90AE4E701EB045133
:1053300010BD491001EB0451BDE810404FEA3000A8
:1053400002E04FF0000170474A0008BF0042F8D069
:10535000B2F5001F28BF704701F000414FF0000078
:1053600070479EEA445F07D011EA5E0FBDE8104027
:1053700004BF002100207047BDE8104070B5FFF762
:1053800095FE00BF40DFF63E83F0004110467047B7
:105390000000E0FF00C1814001C0804101C08041A8
:1053A00000C1814001C0804100C1814000C18140F5
:1053B00001C0804101C0804100C1814000C18140E5
:1053C00001C0804100C1814001C0804101C08041D5
:1053D00000C1814001C0804100C1814000C18140C5
:1053E00001C0804100C1814001C0804101C08041B5
:1053F00000C1814000C1814001C0804101C08041A5
:1054000000C1814001C0804100C1814000C1814094
:1054100001C0804101C0804100C1814000C1814084
:1054200001C0804100C1814001C0804101C0804174
:1054300000C1814000C1814001C0804101C0804164
:1054400000C1814001C0804100C1814000C1814054
:1054500001C0804100C1814001C0804101C0804144
:1054600000C1814001C0804100C1814000C1814034
:1054700001C0804101C0804100C1814000C1814024
:1054800001C0804100C1814001C0804101C0804114
:1054900000C1814000C0C101C30302C2C60607C7E4
:1054A00005C5C404CC0C0DCD0FCFCE0E0ACACB0B54
:1054B000C90908C8D81819D91BDBDA1A1EDEDF1F84
:1054C000DD1D1CDC14D4D515D71716D6D21213D374
:1054D00011D1D010F03031F133F3F23236F6F73724
:1054E000F53534F43CFCFD3DFF3F3EFEFA3A3BFB14
:1054F00039F9F83828E8E929EB2B2AEAEE2E2FEFC4
:105500002DEDEC2CE42425E527E7E62622E2E32333
:10551000E12120E0A06061A163A3A26266A6A76763
:10552000A56564A46CACAD6DAF6F6EAEAA6A6BABD3
:1055300069A9A86878B8B979BB7B7ABABE7E7FBF03
:105540007DBDBC7CB47475B577B7B67672B2B373F3
:10555000B17170B0509091519353529296565797A3
:10556000559594549C5C5D9D5F9F9E5E5A9A9B5B93
:1055700099595898884849894B8B8A4A4E8E8F4F43
:105580008D4D4C8C448485458747468682424383B3
:1055900041818040303132333435363738394142F9
:1055A0004344454640305800303132333435363785
:1055B0003839616263646566403078000400000831
:1055C00000000000000000020001000010000000C8
:1055D000F055000800000020B40000006C01000835
:1055E000A4560008B4000020A40F000088010008A1
:1055F00000FC0008000000000000000000000000A7
:10560000000000000000000000000000000000009A
:10561000000000000000000000000000000000008A
:105620003C0000000001010100000000000000003B
:10563000000000000000000000000000000000006A
:105640000000000000A24A0400000000000000006A
:105650000102030406070809000000000000000022
:10566000000000000000000000000000000000003A
:10567000000000000000000000000000000000002A
:1056800000000000000000000000000000FC000816
:1056900000000000010203040102030406070809D8
:0456A00002040608F2
:0400000508000131BD
:00000001FF
